:100000000A128A11DD2FFF1B0D2883137F18831717
:100010000008840A0319FF0A080000308A00040857
:10002000840A8207003443346834653463346B34A3
:10003000733475346D3420344534723472346F3413
:10004000723421340034663472346F346D342034A9
:100050007434683465342034733465346E347334E6
:100060006F34723400344E346F342034723465345B
:10007000733470346F346E347334653400345434F4
:1000800069346D34653420346F34753474342134FC
:1000900000345734613472346E3469346E346734EA
:0200A00000342A
:1000BE001A30F000F00B6128000083120313061AA9
:1000CE0076283530F000F00B6A2883120313061ED3
:1000DE0076282130F000F00B722801300800003035
:1000EE0008008316031306128312031306124130FF
:1000FE00F100EE30F000F00B8228F10B82280000A8
:10010E008312031306161330F000F00B8C288F2881
:10011E008316031306160800FB007B0883120313D5
:10012E00A000A101A2012008F0002108F100220880
:10013E00F2008E30A3002308F300F4010A128A1194
:10014E0029237008F8007108F9007208FA000800F7
:10015E00730883120313FF00720884000A128A11B7
:10016E0003200A128A11003A031908007308831239
:10017E000313FF00720884000A128A1103200A1268
:10018E008A110A128A11C7220A128A110130F20745
:10019E000318F30AAF283430F300F130F200F20BFB
:1001AE00D628F30BD628DB2802300A128A116522D4
:1001BE000A128A1128300A128A1165220A128A112D
:1001CE000C300A128A1165220A128A1106300A129E
:1001DE008A1165220A128A1101300A128A116522C9
:1001EE000A128A110630F3003030F200F20BFD28AD
:1001FE00F30BFD2800000800F601F31F0D29F2098C
:10020E00F309F20A0319F30AF601F60AF11F14298B
:10021E00F009F109F00A0319F10A700871040319C3
:10022E004129F501F50AF11B282901300310F00DC3
:10023E00F10DFF3E031D1D290130F4007408F50772
:10024E001A2971087302031D2E2970087202031CED
:10025E0036297008F2027108031CF303F302013011
:10026E000310F10CF00CFF3E031D37290130F5028F
:10027E00031D2829760803194929F209F309F20A00
:10028E000319F30A7308F1007208F0000800F60172
:10029E00F11F5829F009F109F00A0319F10AF601C4
:1002AE00F60AF31F6329F209F309F20A0319F30A96
:1002BE000130F4007408F606F701F80170087104B5
:1002CE0003199A29F501F50AF11B7929013003105A
:1002DE00F00DF10DFF3E031D6E290130F400740880
:1002EE00F5076B2901300310F70DF80DFF3E031DC6
:1002FE007A2971087302031D862970087202031C85
:10030E008F297008F2027108031CF303F3027714AD
:10031E0001300310F10CF00CFF3E031D902901304B
:10032E00F502031D792976080319A229F709F809A0
:10033E00F70A0319F80A7808F1007708F0000800A8
:10034E00F21FCE290030F6000030F7008030F800A2
:10035E007009F9007109FA007209FB00F90A031914
:10036E00FA0A0319FB0A7908F6077A0803187A0FB6
:10037E00C129C229F7077B0803187B0FC729C82993
:10038E00F8077608F0007708F1007808F200F51FFC
:10039E00F5290030F6000030F7008030F8007309C0
:1003AE00F9007409FA007509FB00F90A0319FA0A33
:1003BE000319FB0A7908F6077A0803187A0FE82959
:1003CE00E929F7077B0803187B0FEE29EF29F807B9
:1003DE007608F3007708F4007808F5008030F2060E
:1003EE008030F50675087202031D0800740871024C
:1003FE00031D0800730870020800F2017D0803193E
:10040E000A2A00300800F401083074020318632A27
:10041E00F301122A122A83120313061A202A01301C
:10042E00F0007008F30765307302031C112AFD01FA
:10043E00FD0A1330F000F00B222A252A8312031333
:10044E00061A3B2A0130F0007403FF3A073E013EC4
:10045E00322A0310F00DFF3E031D302A7008FF3ABA
:10046E00F1007108F2055B2A0130F0007403FF3AC7
:10047E00073E013E442A0310F00DFF3E031D422AA3
:10048E007008F1007108F2044D2A4D2A83120313ED
:10049E00061E5B2A0130F0007008F3076530730208
:1004AE00031C4C2AFD01FD0A0130F0007008F40710
:1004BE0008307402031C0F2A72080800F100831220
:1004CE00031308108810F11F702A831203130817E4
:1004DE00732A831203130813711F792A83120313CD
:1004EE0088167C2A831203138812F11E822A831225
:1004FE0003130816852A831203130812711E8B2A02
:10050E008312031388158E2A83120313881108157C
:10051E00902A8312031308114230F000F00B952A33
:10052E000000F11D9E2A831203130817A12A8312BD
:10053E0003130813711DA72A831203138816AA2A00
:10054E00831203138812F11CB02A831203130816A8
:10055E00B32A831203130812711CB92A83120313D0
:10056E008815BC2A8312031388110815BE2A83121C
:10057E00031308114230F000F00BC32A00000800EC
:10058E00F1008312031308148810F11FD22A83126C
:10059E0003130817D52A831203130813711FDB2ABE
:1005AE00831203138816DE2A831203138812F11E98
:1005BE00E42A831203130816E72A83120313081280
:1005CE00711EED2A831203138815F02A831203136A
:1005DE0088110815F22A8312031308114230F00015
:1005EE00F00BF72A0000F11D002B831203130817DE
:1005FE00032B831203130813711D092B831203138C
:10060E0088160C2B831203138812F11C122B8312E3
:10061E0003130816152B831203130812711C1B2BC0
:10062E008312031388151E2B8312031388110815CA
:10063E00202B8312031308114230F000F00B252BF0
:10064E000000080073080319312B7208710470043E
:10065E00031D442B0030F0000030F1000030F2009A
:10066E0008000130F5007508F30701300310F20C95
:10067E00F10CF00CFF3E031D3D2BFE3072050319ED
:10068E005F2B382B0130F5007508F3070130F007AA
:10069E00003003180130F107003003180130F20763
:1006AE0001300310F20CF10CF00CFF3E031D582B21
:1006BE00FF30720503196E2B492B0130F302013006
:1006CE000310F00DF10DF20DFF3E031D672BF11B14
:1006DE00742B023073020318642B73187C2BFF30BB
:1006EE00F0057F30F105FF30F2050310F30C7308AF
:1006FE00F500F601F70110300310F50DF60DF70DAC
:10070E00FF3E031D832B7508F0047608F10477086D
:10071E00F204740803190800F21708008312031379
:10072E0087120713871307120030F000C830F1004C
:10073E004130F2002008F3002108F4002208F500F1
:10074E000A128A11A7210A128A110318CA2B8312C0
:10075E00031387160A128A15AE270A128A1104305D
:10076E00FC007C08F20000300A128A15DE270A12FD
:10077E008A113730F2008030F3000A128A11AF204E
:10078E000A128A11102C831203132008F00021087C
:10079E00F1002208F2000030F300A030F4004130E6
:1007AE00F5000A128A11A7210A128A11031CF82BCE
:1007BE000030F000C830F1004130F2008312031314
:1007CE002008F3002108F4002208F5000A128A110D
:1007DE00A7210A128A11031CF82B83120313071781
:1007EE00102C831203132008F0002108F1002208B8
:1007FE00F2000030F300A030F4004130F5000A1290
:10080E008A11A7210A128A110318102C83120313BE
:10081E0087170030F000C830F1004130F20083122B
:10082E0003132008F3002108F4002208F5000A1231
:10083E008A11A7210A128A110318292C8312031375
:10084E0007160800831203130712080083120313FE
:10085E002708AA002808AB002908AC0003102B0DAE
:10086E002C0DAD002D08B2003208031D452C0030B2
:10087E00A4000030A5000030A60008002408AA003D
:10088E002508AB002608AC0003102B0D2C0DAD0077
:10089E002D08B3003308031D5B2C0030A40000307C
:1008AE00A5000030A60008000030AF000030B000F8
:1008BE000030B10089303307AA002A08B202270897
:1008CE00AA002808AB002908AC0010300310AC0CAD
:1008DE00AB0CAA0CFF3E031D6D2C2A08AD002D0893
:1008EE00B3002408AA002508AB002608AC0010307F
:1008FE000310AC0CAB0CAA0CFF3E031D7F2C2A0878
:10090E00AD002D08B3068030AA002A08B305A8173B
:10091E00FF30A705FF30A8050030A905A517FF3049
:10092E00A405FF30A5050030A6051830AA002A0838
:10093E00AE0001300310AF0DB00DB10DFF3E031D23
:10094E00A12C26082902031DB22C25082802031DFE
:10095E00B22C24082702031CBF2C2408A70225084A
:10096E00031C250FA8022608031C260AA9022F1411
:10097E0001300310A70DA80DA90DFF3E031DC02CBD
:10098E000130AE02031DA02C2F08F0003008F1003C
:10099E003108F2003208AA002A08F3003308AB002F
:1009AE002B08F4000A128A112923700883120313EC
:1009BE00A4007108A5007208A60008008312031394
:1009CE003408BA003508BB003608BC0003103B0DD6
:1009DE003C0DBD003D08C0003708BA003808BB000A
:1009EE003908BC0003103B0D3C0DBD003D08BF0097
:1009FE00400803190E2D3F0840020318152D400321
:100A0E00FF3A3F07BA0019303A02031C152D37087A
:100A1E00B4003808B5003908B60008003F080319BD
:100A2E00080040083F020318242D3F03FF3A4007F9
:100A3E00BA0019303A02031808000630BA003A0814
:100A4E00BE00B61BBE17B91B3E17B517FF30B40557
:100A5E00FF30B5050030B605B817FF30B705FF30CB
:100A6E00B8050030B9053F0840020318642D013067
:100A7E000310B70DB80DB90DFF3E031D3F2D01300C
:100A8E00BF023F08400603195F2D0130BE023E082B
:100A9E00073903195F2D3E2D01300310B60CB50C2E
:100AAE00B40CFF3E031D542D0130BA003A08C007A6
:100ABE0040083F0603198D2D532D40083F020318A1
:100ACE008D2D01300310B40DB50DB60DFF3E031D77
:100ADE00692D0130C0023F0840060319892D0130EF
:100AEE00BE023E0807390319892D682D0130031007
:100AFE00B90CB80CB70CFF3E031D7E2D0130BA00A9
:100B0E003A08BF0740083F06031D7D2DBE1F9F2DCF
:100B1E00FF30B406FF30B506FF30B6060130B4071D
:100B2E00003003180130B507003003180130B60746
:100B3E003E1FB12DFF30B706FF30B806FF30B906A5
:100B4E000130B707003003180130B8070030031822
:100B5E000130B907BE013408B70735080311031871
:100B6E00350A031DB807360803110318360A031D8C
:100B7E00B907B91FD42DFF30B706FF30B806FF30C6
:100B8E00B9060130B707003003180130B80700303E
:100B9E0003180130B907BE01BE0A3708F000380845
:100BAE00F1003908F2004008BA003A08F3003E0896
:100BBE00BB003B08F4000A128A1129237008831225
:100BCE000313B4007108B5007208B600080083164E
:100BDE000313880187120713871306160712831251
:100BEE00031387120713871307120A128A11D220D2
:100BFE000A128A110A128A15AE270A128A110B30AE
:100C0E0083120313C3002630C2005D30C100C10B36
:100C1E000E2EC20B0E2EC30B0E2EFD010A128A11C2
:100C2E0078200A128A110A128A115F200A128A117A
:100C3E00003A0319A42F0A128A1104220A128A11E9
:100C4E0083120313C1004108E0000A128A11042224
:100C5E000A128A1183120313C1004108DF000A121F
:100C6E008A1104220A128A1183120313C100410849
:100C7E00E2000A128A1104220A128A118312031345
:100C8E00C1004108E1000A128A1104220A128A11D7
:100C9E0083120313C1004108DE007D0803196A2E7A
:100CAE000A128A15AE270A128A1104308312031310
:100CBE00C1004108F20000300A128A15DE270A121E
:100CCE008A112D30C62F8312031360085F07C100EF
:100CDE00C201C20D62084107C30000300318013083
:100CEE004207C40061084307C500003003180130F5
:100CFE004407C600FF304505C70000304605C80052
:100D0E005E08C900CA0148084A06031D902E47080E
:100D1E004906031D962F61080A128A1193200A12A2
:100D2E008A11780883120313A7007908A8007A089D
:100D3E00A9000030A4002030A5004130A6000A1200
:100D4E008A112D240A128A11831203132408B40067
:100D5E002508B5002608B60062080A128A119320EB
:100D6E000A128A11780883120313B7007908B800A3
:100D7E007A08B9000A128A11E5240A128A1183121E
:100D8E0003133408CB003508CC003608CD000A30EA
:100D9E00F0000030F1006208C100C2014108F2000B
:100DAE004208F3000A128A114E210A128A117008A3
:100DBE00303E83120313C3004308D5000A30F000FF
:100DCE000030F1006208C100C2014108F200420881
:100DDE00F3000A128A1103210A128A117008303E9A
:100DEE0083120313C3004308D6000A30F00000300C
:100DFE00F1006108C100C2014108F2004208F3008F
:100E0E000A128A114E210A128A117008303E83127C
:100E1E000313C3004308D8000A30F0000030F1007D
:100E2E006008C100C2014108F2004208F3000A1234
:100E3E008A114E210A128A117008303E8312031352
:100E4E00C300430883160313A7000A30F0000030D6
:100E5E00F100831203136008C100C2014108F200C1
:100E6E004208F3000A128A1103210A128A1170082D
:100E7E00303E83120313C300430883160313A800E6
:100E8E000A30F0000030F100831203135F08C10036
:100E9E00C2014108F2004208F3000A128A114E21E3
:100EAE000A128A117008303E83120313C3004308DE
:100EBE0083160313AA00DF3083120313C100410807
:100ECE00D900F20100300A128A15DE270A128A11A1
:100EDE004E30F2000030F3000A128A11AF200A12CF
:100EEE008A11F20101300A128A15DE270A128A11BE
:100EFE00A030F2000030F3000A128A11AF200A125D
:100F0E008A11831203134B08A0004C08A1004D0850
:100F1E00A2000A128A1195230A128A11CE2F0A12E2
:100F2E008A15AE270A128A11F20100300A128A15AA
:100F3E00DE270A128A110130C62F0A128A15AE2731
:100F4E000A128A11023083120313C1004108F20003
:100F5E0000300A128A15DE270A128A112130F20099
:100F6E008030F3000A128A11AF200A128A11F201A0
:100F7E0001300A128A15DE270A128A111130F20088
:100F8E008030F3000A128A11AF200A128A110B3038
:100F9E0083120313C3002630C2005D30C100C10BA3
:100FAE00D62FC20BD62FC30BD62F142E8313B030D1
:100FBE00FD000F30FE00BE30FF00A03084000A128C
:100FCE008A15F3270A128A115E30FD000F30FE00DB
:100FDE00CE30FF004E3084000A128A15F327DE0150
:100FEE00DF01E001E101E201FD0183010A128A1134
:020FFE00EE2DD6
:101F5C0001300A128A1165220A128A150630F30022
:101F6C003030F200F20BB82FF30BB82F0000080042
:101F7C00523448342034203420343D34203430342E
:101F8C0030342E3430342034253420342034003492
:101F9C00543465346D34703420343D342034303452
:101FAC0030342E3430342034433420342034003454
:101FBC00F4007408031DE52F7208803EE72F7208A9
:101FCC00C03EF3007308F50075080A128A116522E9
:101FDC0008007E088A007F088200EF270A128A1503
:101FEC008000840A04087D0603190034FF0A0319D3
:041FFC00FE0AF32FB7
:02400E003A3F37
:00000001FF
